:020000020000FC
:100000000C943C000C9406000C940D00F3956030A9
:10001000E1F06A956A9575D11895F3956630A9F067
:08002000639563956ED11895FC
:10004A0001E0B5D007E4C5D001E4C3D00DE4C1D0C6
:10005A0005E4BFD000E2BDD00FE4BBD006E5B9D0BD
:10006A0005E4B7D002E5B5D04CD14BD1E9DF70E257
:10007A0080E290E2A0E2B0E2C0E2D0E2E0E260E038
:10008A000FEF0AB904B92898529853980AE00093D6
:10009A00690003E00DBB78942FD11AD002E087D013
:1000AA00F0E0A9D00DEC83D000E293D092D091D0A9
:1000BA0028D1F030B1F3F770F160EAD00091000175
:1000CA0012E01FD11A95E9F7039500930001F3CFC7
:1000DA0003E36DD011D102E36AD00ED108E267D0F2
:1000EA000BD10CE064D001E062D006D106E05FD00B
:1000FA0000E45DD000E06DD008E16BD00FE169D07B
:10010A0000E067D066D065D064D063D00FEF61D0CD
:10011A0000E05FD05ED00FEF5CD05BD05AD059D0F0
:10012A0058D000E056D055D008E153D00FE151D055
:10013A0000E04FD04ED04DD04CD00FEF4AD049D02E
:10014A0000E047D046D00FEF44D043D042D041D050
:10015A0000E03FD03ED03DD008E13BD00FE139D09E
:10016A0000E037D036D035D00FEF33D032D031D08F
:10017A0000E02FD02ED00FEF2CD02BD02AD000E0C9
:10018A0028D027D026D025D008E123D00FE121D0CE
:10019A0000E01FD01ED00FEF1CD01BD01AD019D0F0
:1001AA0000E017D016D00FEF14D013D00895A4D0C2
:1001BA00202F207F2BB92998289A96D0289897D053
:1001CA00202F2295207F2BB9289A8ED028988FD05D
:1001DA00089592D0202F207F2BB9299A289A84D06B
:1001EA00289885D0202F2295207F2BB9289A7CD059
:1001FA0028987DD0089500E8DADF01E4EADF03E712
:10020A00E8DF04E7E6DF05E6E4DF02E7E2DF0FE620
:10021A00E0DF09E6DEDF04E6DCDF00E2DADF03E541
:10022A00D8DF03E4D6DF0FE4D4DF02E5D2DF05E44A
:10023A00D0DF0AE3CEDF00E2CCDF00ECB8DF00E576
:10024A00C8DF02E7C6DF05E6C4DF03E7C2DF03E76C
:10025A00C0DF00E2BEDF04E5BCDF0FE6BADF00E282
:10026A00B8DF00E5B6DF0CE6B4DF01E6B2DF09E786
:10027A00B0DF47D00EE2ADDF44D00EE2AADF41D0B4
:10028A000EE2A7DF14E03DD01A95E9F70895D8DE0B
:10029A0000EC8DDF703219F07A956717C1F70FEF0E
:1002AA0098DF97DF96DF95DF94DF93DF062F91DFE4
:1002BA00782F892F9A2FAB2FBC2FCD2FDE2FEF2F20
:1002CA00072F87DF082F85DF092F83DF0A2F81DFBA
:1002DA000B2F7FDF0C2F7DDF0D2F7BDF0E2F79DFBA
:1002EA000F2F77DF0ED008950000000008954AE529
:1002FA00FBDF4A95E9F7089558E2F9DF5A95E9F7DD
:10030A0008953FEF4FEF54E15A95F1F74A95D9F71F
:06031A003A95C1F70895B9
:00000001FF
