:020000020000FC
:100000000C943C000C9406000C940D00F3956030A9
:10001000E1F06A956A956FD11895F3956630A9F06D
:080020006395639568D1189502
:10004A0001E0B5D007E4C5D001E4C3D00DE4C1D0C6
:10005A0005E4BFD000E2BDD00FE4BBD006E5B9D0BD
:10006A0005E4B7D002E5B5D046D145D1E9DF70E263
:10007A0080E290E2A0E2B0E2C0E2D0E2E0E260E038
:10008A000FEF0AB904B92898529853980AE00093D6
:10009A00690003E00DBB789429D11AD002E087D019
:1000AA00F0E0A9D00DEC83D000E293D092D091D0A9
:1000BA0022D1F030B1F3F770F160E9D0009100017C
:1000CA0012E019D11A95E9F7039500930001F3CFCD
:1000DA0003E36DD00BD102E36AD008D108E267D0FE
:1000EA0005D10CE064D001E062D000D106E05FD017
:1000FA0000E45DD000E06DD008E16BD00FE169D07B
:10010A0000E067D066D065D064D063D00FEF61D0CD
:10011A0000E05FD05ED00FEF5CD05BD05AD059D0F0
:10012A0058D000E056D055D008E153D00FE151D055
:10013A0000E04FD04ED04DD04CD00FEF4AD049D02E
:10014A0000E047D046D00FEF44D043D042D041D050
:10015A0000E03FD03ED03DD008E13BD00FE139D09E
:10016A0000E037D036D035D00FEF33D032D031D08F
:10017A0000E02FD02ED00FEF2CD02BD02AD000E0C9
:10018A0028D027D026D025D008E123D00FE121D0CE
:10019A0000E01FD01ED00FEF1CD01BD01AD019D0F0
:1001AA0000E017D016D00FEF14D013D008959ED0C8
:1001BA00202F207F2BB92998289A90D0289891D05F
:1001CA00202F2295207F2BB9289A88D0289889D069
:1001DA0008958CD0202F207F2BB9299A289A7ED077
:1001EA0028987FD0202F2295207F2BB9289A76D065
:1001FA00289877D0089500E8DADF01E4EADF03E718
:10020A00E8DF04E7E6DF05E6E4DF02E7E2DF0FE620
:10021A00E0DF09E6DEDF04E6DCDF00E2DADF03E541
:10022A00D8DF03E4D6DF0FE4D4DF02E5D2DF05E44A
:10023A00D0DF0AE3CEDF00E2CCDF00ECB8DF00E576
:10024A00C8DF02E7C6DF05E6C4DF03E7C2DF03E76C
:10025A00C0DF00E2BEDF04E5BCDF0FE6BADF00E282
:10026A00B8DF00E5B6DF0CE6B4DF01E6B2DF09E786
:10027A00B0DF41D00EE2ADDF3ED00EE2AADF3BD0C6
:10028A000EE2A7DF14E037D01A95E9F7089500ECDB
:10029A008EDF0FEF9EDF9DDF9CDF9BDF9ADF99DF0A
:1002AA00062F97DF782F892F9A2FAB2FBC2FCD2FB0
:1002BA00DE2FEF2F072F8DDF082F8BDF092F89DF26
:1002CA000A2F87DF0B2F85DF0C2F83DF0D2F81DFAE
:1002DA000E2F7FDF0F2F7DDF0ED008950000000064
:1002EA0008954AE5FBDF4A95E9F7089558E2F9DFF0
:1002FA005A95E9F708953FEF4FEF54E15A95F1F710
:0A030A004A95D9F73A95C1F7089516
:00000001FF
